:020000040800F2
:100000000000022081020008D1020008D10200088D
:10001000D1020008D1020008D1020008000000004F
:10002000000000000000000000000000D1020008F5
:10003000D102000800000000D1020008D10200082F
:10004000D1020008D1020008D1020008D102000844
:10005000D1020008D1020008D1020008D102000834
:10006000D1020008D1020008D1020008D102000824
:10007000D1020008D1020008D1020008D102000814
:10008000D1020008D1020008D1020008D102000804
:10009000D1020008D1020008D1020008D1020008F4
:1000A000D1020008D1020008D1020008D1020008E4
:1000B000D1020008D1020008D1020008D1020008D4
:1000C000D1020008D1020008D1020008D1020008C4
:1000D000D1020008D1020008D1020008D1020008B4
:1000E000D1020008D1020008D1020008D1020008A4
:1000F000D1020008D1020008D1020008D102000894
:10010000D1020008D1020008D1020008D102000883
:10011000D1020008D1020008D1020008D102000873
:10012000D1020008D1020008D1020008D102000863
:10013000D10200080000000000000000D102000809
:10014000D1020008D1020008D1020008D102000843
:10015000D1020008D1020008D1020008D102000833
:10016000D1020008D1020008D1020008D102000823
:10017000D1020008D1020008D102000800000000EE
:1001800000000000D1020008000000000000000094
:10019000D10200080000000000000000D1020008A9
:1001A000000000000000000000000000D102000874
:1001B000D1020008D1020008D1020008D1020008D3
:0401C000D102000860
:1001C40010B5054C237833B9044B13B10448AFF38D
:1001D40000800123237010BD0000002000000000F7
:1001E4001C03000808B5034B1BB103490348AFF3D4
:1001F400008008BD00000000040000201C0300086B
:10020400034AD2F8883043F47003C2F88830704748
:1002140000ED00E008B500F015F804E0074A936922
:1002240043F400139361064B1B6913F4005FF5D18B
:10023400024A936943F020039361F4E7000002400B
:10024400000802400B4A136B43F0050313630A4B87
:100254001A6842F480621A605A6822F020025A60D6
:100264009A6842F480629A60DA6822F48062DA6002
:10027400704700BF0038024000000240DFF834D06D
:100284000D480E490E4A002302E0D458C4500433EA
:10029400C4188C42F9D30B4A0B4C002301E01360C1
:1002A4000432A242FBD3FFF7ABFF00F011F8FFF7D3
:1002B400B1FF704700000220000000200000002071
:1002C4003C030008000000201C000020FEE70000A2
:1002D40070B50D4D0D4C641BA4100026A64209D127
:1002E4000B4D0C4C00F018F8641BA4100026A64219
:1002F40005D170BD55F8043B98470136EEE755F833
:10030400043B98470136F2E734030008340300083D
:100314003403000838030008F8B500BFF8BC08BC73
:100324009E467047F8B500BFF8BC08BC9E467047AF
:04033400E9010008D3
:04033800C5010008F3
:04000005080002816C
:00000001FF
