:020000040800F2
:1000000000000220FD0400084D0500084D05000811
:100010004D0500084D0500084D05000800000000D2
:100020000000000000000000000000004D05000876
:100030004D050008000000004D0500084D050008B2
:100040004D0500084D0500084D0500084D05000848
:100050004D0500084D0500084D0500084D05000838
:100060004D0500084D0500084D0500084D05000828
:100070004D0500084D0500084D0500084D05000818
:100080004D0500084D0500084D0500084D05000808
:100090004D0500084D0500084D0500084D050008F8
:1000A0004D0500084D0500084D0500084D050008E8
:1000B0004D0500084D0500084D0500084D050008D8
:1000C0004D0500084D0500084D0500084D050008C8
:1000D0004D0500084D0500084D0500084D050008B8
:1000E0004D0500084D0500084D0500084D050008A8
:1000F0004D0500084D0500084D0500084D05000898
:100100004D0500084D0500084D0500084D05000887
:100110004D0500084D0500084D0500084D05000877
:100120004D0500084D0500084D0500084D05000867
:100130004D05000800000000000000004D0500080B
:100140004D0500084D0500084D0500084D05000847
:100150004D0500084D0500084D0500084D05000837
:100160004D0500084D0500084D0500084D05000827
:100170004D0500084D0500084D0500080000000071
:10018000000000004D050008000000000000000015
:100190004D05000800000000000000004D050008AB
:1001A0000000000000000000000000004D050008F5
:1001B0004D0500084D0500084D0500084D050008D7
:0401C0004D050008E1
:1001C40010B5054C237833B9044B13B10448AFF38D
:1001D40000800123237010BD0000002000000000F7
:1001E4009805000808B5034B1BB103490348AFF356
:1001F400008008BD000000000400002098050008ED
:10020400034AD2F8883043F47003C2F88830704748
:1002140000ED00E00D4B1B6883B90D4A12786AB9F2
:100224000B4B01221A700B4A13780133DBB21370A3
:10023400022B0AD9134600221A7070472BB1044BC3
:100244001B7813B1024B00221A7070472000002063
:100254001D0000201C0000201C4B1B68E3B11C4A3D
:10026400936943F0010393611A4B1B68D3B1184A95
:10027400936943F002039361174B1B68C3B114499C
:100284008A69164B1B7803EB43039800144B034411
:100294009B6813438B6170470D4A936943F4803321
:1002A4009361E1E70A4A936943F400339361E3E716
:1002B40007498A69094B1B7803EB43039800094BF0
:1002C40003449B6813438B61704700BF2C000020DC
:1002D4000000024028000020240000201C00002010
:1002E400D4050008B00500081B4B1B68DBB11B4993
:1002F4008A691B4B1B7803EB43039800194B1B586B
:1003040013438B61184B1B68CBB1144A936943F0B8
:1003140001039361154B1B68BBB1104A936943F009
:100324000203936170470D498A690D4B1B7803EBF7
:10033400430398000E4B1B5813438B61E2E7074AB3
:10034400936943F480339361E4E7044A936943F483
:1003540000339361704700BF2C000020000002406E
:100364001C000020D40500082800002024000020E0
:10037400B00500081C4B1B68E3B11C4A936943F0A9
:10038400020393611A4B1B68D3B118498A69194B4C
:100394001B7803EB43039800174B03445B68134338
:1003A4008B61164B1B68C3B1104A936943F0010378
:1003B400936170470D4A936943F400339361E1E715
:1003C4000A498A690B4B1B7803EB430398000C4BD7
:1003D40003445B6813438B61E3E7044A936943F482
:1003E40080339361704700BF2C000020000002405E
:1003F400280000201C000020D40500082400002050
:10040400B005000808B5084B1B7823B1012B05D0B3
:10041400022B06D008BDFFF71FFFFBE7FFF764FFC1
:10042400F8E7FFF7A7FFF5E71C00002008B500F088
:1004340053F80D4B1A6902F480620C490A601A6978
:1004440002F020020A490A601B6903F00103094A09
:100454001360094B1B6903F40053084A1360FFF748
:10046400D9FEFFF7CFFFE4E7000402402C00002090
:100474002800002024000020000802402000002062
:10048400044B1A6842F004021A609A6842F00402AB
:100494009A60704700000240044B1A6842F001025F
:1004A4001A609A6842F001029A60704700000240A4
:1004B400084B1A6842F480721A605A6822F01002DB
:1004C4005A609A6842F480729A60DA6842F4407220
:1004D400DA6070470000024008B5064A136B43F027
:1004E40007031363FFF7CCFFFFF7D6FFFFF7E0FF27
:1004F40008BD00BF00380240DFF834D00D480E4973
:100504000E4A002302E0D458C4500433C4188C4269
:10051400F9D30B4A0B4C002301E013600432A242CE
:10052400FBD3FFF76DFE00F011F8FFF77FFF704774
:100534000000022000000020000000200006000847
:100544000000002030000020FEE7000070B50D4DD3
:100554000D4C641BA4100026A64209D10B4D0C4C73
:1005640000F018F8641BA4100026A64205D170BD43
:1005740055F8043B98470136EEE755F8043B984795
:100584000136F2E7F8050008F8050008F805000848
:10059400FC050008F8B500BFF8BC08BC9E467047CF
:0C05A400F8B500BFF8BC08BC9E467047CC
:1005B0000000010000000200000010000000100018
:1005C0000000010000000200000002000000100016
:1005D0000000010001000000020000001000000007
:1005E00010000000010000000200000002000000F6
:0805F0001000000001000000F2
:0405F800E90100080D
:0405FC00C50100082D
:04000005080004FDEE
:00000001FF
