:020000040800F2
:100000000000022079070008C9070008C907000896
:10001000C9070008C9070008C90700080000000058
:10002000000000000000000000000000C9070008F8
:10003000C907000800000000C9070008C907000838
:10004000C9070008C9070008C9070008C907000850
:10005000C9070008C9070008C9070008C907000840
:10006000C9070008C9070008C9070008C907000830
:10007000C9070008C9070008C9070008C907000820
:10008000C9070008C9070008C9070008C907000810
:10009000C9070008C9070008C9070008C907000800
:1000A000C9070008C9070008C9070008C9070008F0
:1000B000C9070008C9070008C9070008C9070008E0
:1000C000C9070008C9070008C9070008C9070008D0
:1000D000C9070008C9070008C9070008C9070008C0
:1000E000C9070008C9070008C9070008C9070008B0
:1000F000C9070008C9070008C9070008C9070008A0
:10010000C9070008C9070008C9070008C90700088F
:10011000C9070008C9070008C9070008C90700087F
:10012000C9070008C9070008C9070008C90700086F
:10013000C90700080000000000000000C90700080F
:10014000C9070008C9070008C9070008C90700084F
:10015000C9070008C9070008C9070008C90700083F
:10016000C9070008C9070008C9070008C90700082F
:10017000C9070008C9070008C907000800000000F7
:1001800000000000C9070008000000000000000097
:10019000C90700080000000000000000C9070008AF
:1001A000000000000000000000000000C907000877
:1001B000C9070008C9070008C9070008C9070008DF
:0401C000C907000863
:1001C40010B5054C237833B9044B13B10448AFF38D
:1001D40000800123237010BD2400002000000000D3
:1001E4001408000808B5034B1BB103490348AFF3D7
:1001F400008008BD0000000028000020140800084A
:10020400034AD2F8883043F47003C2F88830704748
:1002140000ED00E01A4B00221A6009E0184A136846
:1002240001331360174B1B6903F48063164A136090
:10023400154B1B68002BF1D1114B1B684BB1A3F577
:100244009C42213A11498A4212D8114A1378013347
:1002540013700F4B1B78022B02D90D4B00221A701E
:100264000C4B1B78022B02D90A4B00221A707047E0
:10027400094A9342EDD9074A137801331370E8E72A
:100284004C0000200004024054000020284A0500CD
:100294004200002041000020499805000D4B1B68D6
:1002A40083B10D4A12786AB90B4B01221A700B4ABA
:1002B40013780133DBB21370022B0AD913460022E0
:1002C4001A7070472BB9044B1B7813B1024B0022F0
:1002D4001A707047500000204800002040000020A1
:1002E4000E4B1A6902F480620D490A601B6903F01F
:1002F40020030C490B6052B913B10B4A127842B176
:100304004BB9094B1878012806D00020704701200A
:100314007047012070470020704700BF000402406E
:1003240054000020500000204800002038B5784BCD
:100334001B78002B76D1774B9869774A12787749E6
:1003440002EB420C01EB8C0451F82C5028439861C9
:100354009869646820439861986901EB8C018A6804
:1003640002439A616E4B00221A606D4B1B686D4A02
:1003740093421BD801336A4A1360FFF7B1FF002888
:10038400F3D0644B9869644A1278674902EB4204DB
:1003940001EB840551F824402043986198696C6806
:1003A400204398619869AA6802439A61594B9869F5
:1003B400594A12785C4902EB420C01EB8C0451F867
:1003C4002C5028439861986964682043986198691F
:1003D40001EB8C018A6802439A61514B00221A6036
:1003E4004F4B1B684F4A93421BD801334C4A13604E
:1003F400FFF776FF0028F3D0464B9869464A1278F7
:10040400494902EB420401EB840551F8244020439E
:10041400986198696C68204398619869AA68024356
:100424009A6138BD012B00F083803A4B98693A4AAF
:1004340012783A4902EB420401EB840551F8244056
:100444002043986198696C68204398619869AA6808
:1004540002439A61324B00221A60314B1B68334AC3
:1004640093421BD801332E4A1360FFF739FF00284B
:10047400F3D0284B9869284A12782B4902EB42049E
:1004840001EB840551F824402043986198696C6815
:10049400204398619869AA6802439A611D4B986940
:1004A4001D4A1278204902EB420401EB840551F8FD
:1004B40024402043986198696C6820439861986946
:1004C400AA6802439A61164B00221A60144B1B68F7
:1004D400164A9342A5D80133114A1360FFF700FF6F
:1004E4000028F3D00B4B98690B4A12780E4902EBA3
:1004F400420401EB840551F8244020439861986933
:100504006C68204398619869AA6802439A6188E7F5
:1005140042000020000002404100002000000020B2
:10052400440000206F6408002C080008741E0100B9
:10053400394B9869394A1278394902EB420401EB84
:10054400840551F824402043986198696C682043DD
:1005540098619869AA6802439A61324B00221A6032
:10056400304B1B68304A93421BD801332D4A136029
:10057400FFF7B6FE0028F3D0274B9869274A127874
:100584002A4902EB420401EB840551F8244020433C
:10059400986198696C68204398619869AA680243D5
:1005A4009A611D4B98691D4A1278204902EB420456
:1005B40001EB840551F824402043986198696C68E4
:1005C400204398619869AA6802439A61154B0022F6
:1005D4001A60144B1B68144A93423FF622AF01334E
:1005E400104A1360FFF77CFE0028F2D00A4B98698A
:1005F4000A4A12780D4902EB420401EB840551F8D2
:1006040024402043986198696C68204398619869F4
:10061400AA6802439A6104E70000024041000020F6
:100624000000002044000020AFAD01002C080008A9
:100634001E4B1B78B3B910B41D4B01221A604FF442
:1006440000325A604FF4801098604FF48031D960C2
:1006540002241C6158619961DA6110221A625DF802
:10066400044B7047012B0DD0114B0120186002215F
:10067400596010229A60D86019615A619861D961F1
:100684001A6270470A4B0121196002225A604FF422
:10069400801098604FF48030D8601A6110225A613B
:1006A40099614FF40031D9611A627047400000200B
:1006B4000000002008B500F021F80AE00C4B0022ED
:1006C4001A60FFF7EBFDFFF7A5FDFFF7B1FFFFF79A
:1006D4002DFE084B1B6903F48063074A1360002B4B
:1006E400ECD1044B1B6903F02003014A1360E8E7D3
:1006F4005000002000040240540000201B4A136BE9
:1007040043F0070313631A4B1A6842F001021A609C
:100714001A6842F004021A601A6842F480721A607D
:100724005A6822F001025A605A6822F002025A60A2
:100734005A6822F010025A609A6842F001029A60E4
:100744009A6842F004029A609A6842F480729A604D
:10075400DA6842F00302DA60DA6842F00C02DA6026
:10076400DA6842F44072DA60704700BF0038024031
:1007740000000240DFF834D00D480E490E4A002331
:1007840002E0D458C4500433C4188C42F9D30B4A41
:100794000B4C002301E013600432A242FBD3FFF7A9
:1007A4002FFD00F011F8FFF785FF704700000220CD
:1007B4000000002024000020580800082400002025
:1007C40058000020FEE7000070B50D4D0D4C641B71
:1007D400A4100026A64209D10B4D0C4C00F018F8C9
:1007E400641BA4100026A64205D170BD55F8043B35
:1007F40098470136EEE755F8043B98470136F2E78F
:100804005008000850080008500800085408000860
:10081400F8B500BFF8BC08BC9E467047F8B500BFE9
:08082400F8BC08BC9E467047B9
:10082C000000010000000200000010000000100099
:10083C000000010000000200000002000000100097
:04084C0000000100A7
:04085000E9010008B2
:04085400C5010008D2
:10085800010000000000020000001000000001007C
:10086800020000000000100000000100000002006B
:04087800100000006C
:04000005080007796F
:00000001FF
