:020000040800F2
:100000000000022055020008A5020008A502000811
:10001000A5020008A5020008A502000800000000D3
:10002000000000000000000000000000A502000821
:10003000A502000800000000A5020008A5020008B3
:10004000A5020008A5020008A5020008A5020008F4
:10005000A5020008A5020008A5020008A5020008E4
:10006000A5020008A5020008A5020008A5020008D4
:10007000A5020008A5020008A5020008A5020008C4
:10008000A5020008A5020008A5020008A5020008B4
:10009000A5020008A5020008A5020008A5020008A4
:1000A000A5020008A5020008A5020008A502000894
:1000B000A5020008A5020008A5020008A502000884
:1000C000A5020008A5020008A5020008A502000874
:1000D000A5020008A5020008A5020008A502000864
:1000E000A5020008A5020008A5020008A502000854
:1000F000A5020008A5020008A5020008A502000844
:10010000A5020008A5020008A5020008A502000833
:10011000A5020008A5020008A5020008A502000823
:10012000A5020008A5020008A5020008A502000813
:10013000A50200080000000000000000A502000861
:10014000A5020008A5020008A5020008A5020008F3
:10015000A5020008A5020008A5020008A5020008E3
:10016000A5020008A5020008A5020008A5020008D3
:10017000A5020008A5020008A50200080000000072
:1001800000000000A50200080000000000000000C0
:10019000A50200080000000000000000A502000801
:1001A000000000000000000000000000A5020008A0
:1001B000A5020008A5020008A5020008A502000883
:0401C000A50200088C
:1001C40010B5054C237833B9044B13B10448AFF38D
:1001D40000800123237010BD0000002000000000F7
:1001E400F002000808B5034B1BB103490348AFF301
:1001F400008008BD0000000004000020F002000898
:10020400034AD2F8883043F47003C2F88830704748
:1002140000ED00E00C4AD2F8303843F00401C2F893
:10022400301843F00503C2F83038084B1A6842F41A
:1002340080621A609A6842F480629A60034A936901
:1002440043F020039361F9E70030024000000240CC
:10025400DFF834D00D480E490E4A002302E0D4588A
:10026400C4500433C4188C42F9D30B4A0B4C0023FA
:1002740001E013600432A242FBD3FFF7C1FF00F098
:1002840011F8FFF7C7FF70470000022000000020AC
:100294000000002010030008000000201C000020C3
:1002A400FEE7000070B50D4D0D4C641BA410002634
:1002B400A64209D10B4D0C4C00F018F8641BA41095
:1002C4000026A64205D170BD55F8043B9847013677
:1002D400EEE755F8043B98470136F2E708030008B7
:1002E40008030008080300080C030008F8B500BF61
:1002F400F8BC08BC9E467047F8B500BFF8BC08BC03
:040304009E4670475A
:04030800E9010008FF
:04030C00C50100081F
:040000050800025598
:00000001FF
