:020000040800F2
:1000000000000220110900086109000861090008C8
:10001000610900086109000861090008000000008A
:10002000000000000000000000000000610900085E
:10003000610900080000000061090008610900086A
:1000400061090008610900086109000861090008E8
:1000500061090008610900086109000861090008D8
:1000600061090008610900086109000861090008C8
:1000700061090008610900086109000861090008B8
:1000800061090008610900086109000861090008A8
:100090006109000861090008610900086109000898
:1000A0006109000861090008610900086109000888
:1000B0006109000861090008610900086109000878
:1000C0006109000861090008610900086109000868
:1000D0006109000861090008610900086109000858
:1000E0006109000861090008610900086109000848
:1000F0006109000861090008610900086109000838
:100100006109000861090008610900086109000827
:100110006109000861090008610900086109000817
:100120006109000861090008610900086109000807
:1001300061090008000000000000000061090008DB
:1001400061090008610900086109000861090008E7
:1001500061090008610900086109000861090008D7
:1001600061090008610900086109000861090008C7
:100170006109000861090008610900080000000029
:1001800000000000610900080000000000000000FD
:10019000610900080000000000000000610900087B
:1001A00000000000000000000000000061090008DD
:1001B0006109000861090008610900086109000877
:0401C00061090008C9
:1001C40010B5054C237833B9044B13B10448AFF38D
:1001D40000800123237010BD0400002000000000F3
:1001E400AC09000808B5034B1BB103490348AFF33E
:1001F400008008BD0000000008000020AC090008D1
:10020400034AD2F8883043F47003C2F88830704748
:1002140000ED00E0294B00221A6009E0274A136828
:1002240001331360264B1B6903F48063254A136072
:10023400244B1B68002BF1D1204B1B6863B1A3F541
:100244009C42213A20498A422FD8204B1B7803BB79
:100254001F4A1378013313701D4B1B78022B02D9EC
:100264001B4B00221A701B4B1B78022B02D9194B13
:1002740000221A70184B1B78022B02D9164B00224D
:100284001A70124B1B78022B02D9104B00221A70E1
:100294007047012B04D0104A137801331370DBE745
:1002A4000C4A137801331370D6E70C4A9342D3D91E
:1002B400064A137801331370CEE700BF44000020D0
:1002C400000402404C000020F3C704002C0000206E
:1002D4002F0000202E0000202D0000201416050001
:1002E400134B1B68E3B1134A1278CAB9114B0122AC
:1002F4001A70114A137801335BB21370022B02DDBA
:100304001346FF221A700D4B00221A6002E00133DB
:100314000A4A1360094B1B68094A9342F7D970478C
:100324002BB9044B1B7813B1024B00221A7070478F
:10033400480000204300002000000020440000206A
:100344007F1A0600114A136903F4806310490B6095
:10035400126902F020020F490A602BB10E49FF20F6
:1003640008700E490020087053B912B10C4B1B7869
:1003740043B14AB90A4B1878012806D000207047C7
:10038400012070470120704700207047000402409C
:100394004C00002048000020000000202C00002019
:1003A400430000201E4B1B787BB91E4B1E4A1A606B
:1003B4001E4B1B78BBB91E4B1E4A1A601E4B1B7882
:1003C400FBB91E4B1B4A1A607047012B06D0022B47
:1003D400EED1144B48F235221A60E9E7114B4CF286
:1003E40050321A60E4E7012B06D0022BE6D1104B01
:1003F40046F2A8121A60E1E70D4B4CF250321A6033
:10040400DCE7012B02D0022B05D070470B4B4CF2DA
:1004140050321A607047094B46F2A8121A60F4E78A
:100424002F00002028000020A08601002E000020BC
:1004340024000020400D03002D0000202000002097
:1004440008B5374B93F90030002B68D1354B9A69C6
:1004540042F001029A619A6942F400329A619A69FF
:1004640042F480129A6100232F4A13602F4A1360CA
:1004740009E0934203D32E4B1B78012B23D0FFF7C3
:1004840061FF00282AD1284B1B682A4A934232D89C
:100494000133254A1360254A136801331360264A41
:1004A40012689342E5D3224909780029E1D11D4A13
:1004B400936943F0010393611C4B00221A601C4BA7
:1004C40001221A70DBE7174A936943F4803393617E
:1004D4000023164A1360164A1370D0E7114B9A6929
:1004E40042F480329A619A6942F400329A619A69BC
:1004F40042F480129A610B4B9A6942F480329A61F9
:100504009A6942F400329A619A6942F480129A61BB
:100514000023054A1360054A1360054A137008BD99
:1005240000000020000002403C00002038000020B1
:100534004200002040420F002800002008B5494B2B
:1005440093F90030012B00D008BD0023464A136004
:10055400464A1360464A13601CE08A4203D3454A64
:100564001278012A3BD0444A1268934242D3434949
:10057400097800293ED1424A936943F0020393610A
:100584003B4B00221A603D4B01221A70FFF7DAFE42
:10059400002840D1344B1B683A4A934248D801336F
:1005A400314A1360314B1A6801321A6030490B68C2
:1005B40001330B603449096805398A42CDD32D488B
:1005C40000780028C9D12E498A6942F001028A6163
:1005D400264A00211160274A01211170C3E72849E6
:1005E4008A6942F480328A61002220490A602149E2
:1005F4000A70B8E79342C9D3204B1B78012BC5D1AD
:100604001F4A936943F4003393610023184A13602B
:100614001A4A1370BAE71A4B9A6942F480329A6103
:100624009A6942F400329A619A6942F480129A619A
:10063400134B9A6942F480329A619A6942F4003207
:100644009A619A6942F480129A610023064A1360FF
:10065400064A1360064A1360064A1370074A137069
:1006640072E700BF000000203C000020380000209A
:10067400340000204200002024000020410000201B
:100684000000024040420F00280000205E4B93F916
:100694000030022B00D0704710B500235B4A136072
:1006A4005B4A13605B4A13602FE0814203D35A49CB
:1006B4000978012951D0594909688A4258D35848C0
:1006C4000078002854D157498A6942F002028A61AD
:1006D400504A00211160524A01211170524A126895
:1006E400934256D351490978002952D14D4A93690E
:1006F40043F0100393614E4B00221A604B4B0122CE
:100704001A70FFF71FFE002854D1404B1B68494A5A
:1007140093425CD801333D4A13603D4B1968013163
:1007240019603C4B1A6801321A604148036801336E
:100734000360414800688142B7D3374C2478002CC9
:10074400B3D13848816941F0010181613049002009
:100754000860314901200870ADE73248816941F4ED
:100764008031816100212A4801602B480170A2E791
:100774008A42B3D32A4A1278012AAFD129498A6915
:1007840042F400328A61002222490A6024490A7034
:10079400A4E79342B5D3254B1B78012BB1D1214A51
:1007A400936943F4801393610023214A13601F4A21
:1007B4001370A6E71B4B9A6942F480329A619A69D6
:1007C40042F400329A619A6942F480129A61154B9C
:1007D4009A6942F480329A619A6942F400329A61C9
:1007E4009A6942F480129A610023084A1360084A05
:1007F4001360084A13600E4A1360074A1370084ACC
:1008040013700A4A137010BD000000203C00002041
:100814003800002034000020420000202400002082
:100824004100002000000240200000204000002081
:100834003000002040420F002800002008B5FFF7D8
:10084400FFFDFFF77BFEFFF721FF08BD08B500F0B1
:1008540021F80AE00C4B00221A60FFF741FDFFF774
:10086400D9FCFFF79FFDFFF7E9FF084B1B6903F471
:100874008063074A1360002BECD1044B1B6903F01F
:100884002003014A1360E8E7480000200004024006
:100894004C0000201B4A136B43F0070313631A4BED
:1008A4001A6842F001021A601A6842F004021A60DF
:1008B4001A6842F480721A605A6822F001025A607F
:1008C4005A6822F002025A605A6822F010025A60F2
:1008D4009A6842F001029A609A6842F004029A60AF
:1008E4009A6842F480729A60DA6842F00302DA602D
:1008F400DA6842F00C02DA60DA6842F44072DA60D4
:10090400704700BF0038024000000240DFF834D0D6
:100914000D480E490E4A002302E0D458C450043353
:10092400C4188C42F9D30B4A0B4C002301E013602A
:100934000432A242FBD3FFF763FC00F011F8FFF787
:1009440085FF704700000220000000200400002002
:10095400CC0900080400002050000020FEE700003D
:1009640070B50D4D0D4C641BA4100026A64209D190
:100974000B4D0C4C00F018F8641BA4100026A64282
:1009840005D170BD55F8043B98470136EEE755F89C
:10099400043B98470136F2E7C4090008C40900087B
:1009A400C4090008C8090008F8B500BFF8BC08BCB1
:1009B4009E467047F8B500BFF8BC08BC9E46704719
:0409C400E90100083D
:0409C800C50100085D
:0409CC00FF00000028
:0400000508000911D5
:00000001FF
