:020000040800F2
:100000000000022059020008A9020008A902000805
:10001000A9020008A9020008A902000800000000C7
:10002000000000000000000000000000A90200081D
:10003000A902000800000000A9020008A9020008A7
:10004000A9020008A9020008A9020008A9020008E4
:10005000A9020008A9020008A9020008A9020008D4
:10006000A9020008A9020008A9020008A9020008C4
:10007000A9020008A9020008A9020008A9020008B4
:10008000A9020008A9020008A9020008A9020008A4
:10009000A9020008A9020008A9020008A902000894
:1000A000A9020008A9020008A9020008A902000884
:1000B000A9020008A9020008A9020008A902000874
:1000C000A9020008A9020008A9020008A902000864
:1000D000A9020008A9020008A9020008A902000854
:1000E000A9020008A9020008A9020008A902000844
:1000F000A9020008A9020008A9020008A902000834
:10010000A9020008A9020008A9020008A902000823
:10011000A9020008A9020008A9020008A902000813
:10012000A9020008A9020008A9020008A902000803
:10013000A90200080000000000000000A902000859
:10014000A9020008A9020008A9020008A9020008E3
:10015000A9020008A9020008A9020008A9020008D3
:10016000A9020008A9020008A9020008A9020008C3
:10017000A9020008A9020008A90200080000000066
:1001800000000000A90200080000000000000000BC
:10019000A90200080000000000000000A9020008F9
:1001A000000000000000000000000000A90200089C
:1001B000A9020008A9020008A9020008A902000873
:0401C000A902000888
:1001C40010B5054C237833B9044B13B10448AFF38D
:1001D40000800123237010BD0000002000000000F7
:1001E400F402000808B5034B1BB103490348AFF3FD
:1001F400008008BD0000000004000020F402000894
:10020400034AD2F8883043F47003C2F88830704748
:1002140000ED00E00D4AD2F8303843F00203C2F892
:1002240030380B4BD3F8002442F08052C3F800243A
:10023400D3F8082442F08052C3F80824044AD2F8C0
:10024400183443F40053C2F81834F7E7003002407E
:1002540000000240DFF834D00D480E490E4A002356
:1002640002E0D458C4500433C4188C42F9D30B4A66
:100274000B4C002301E013600432A242FBD3FFF7CE
:10028400BFFF00F011F8FFF7C5FF70470000022020
:1002940000000020000000201403000800000020DB
:1002A4001C000020FEE7000070B50D4D0D4C641BD2
:1002B400A4100026A64209D10B4D0C4C00F018F8EE
:1002C400641BA4100026A64205D170BD55F8043B5A
:1002D40098470136EEE755F8043B98470136F2E7B4
:1002E4000C0300080C0300080C03000810030008AA
:1002F400F8B500BFF8BC08BC9E467047F8B500BF0F
:08030400F8BC08BC9E467047DE
:04030C00E9010008FB
:04031000C50100081B
:040000050800025994
:00000001FF
