:020000040800F2
:1000000000000220ED0300083D0400083D04000844
:100010003D0400083D0400083D0400080000000005
:100020000000000000000000000000003D04000887
:100030003D040008000000003D0400083D040008E5
:100040003D0400083D0400083D0400083D0400088C
:100050003D0400083D0400083D0400083D0400087C
:100060003D0400083D0400083D0400083D0400086C
:100070003D0400083D0400083D0400083D0400085C
:100080003D0400083D0400083D0400083D0400084C
:100090003D0400083D0400083D0400083D0400083C
:1000A0003D0400083D0400083D0400083D0400082C
:1000B0003D0400083D0400083D0400083D0400081C
:1000C0003D0400083D0400083D0400083D0400080C
:1000D0003D0400083D0400083D0400083D040008FC
:1000E0003D0400083D0400083D0400083D040008EC
:1000F0003D0400083D0400083D0400083D040008DC
:100100003D0400083D0400083D0400083D040008CB
:100110003D0400083D0400083D0400083D040008BB
:100120003D0400083D0400083D0400083D040008AB
:100130003D04000800000000000000003D0400082D
:100140003D0400083D0400083D0400083D0400088B
:100150003D0400083D0400083D0400083D0400087B
:100160003D0400083D0400083D0400083D0400086B
:100170003D0400083D0400083D04000800000000A4
:10018000000000003D040008000000000000000026
:100190003D04000800000000000000003D040008CD
:1001A0000000000000000000000000003D04000806
:1001B0003D0400083D0400083D0400083D0400081B
:0401C0003D040008F2
:1001C40010B5054C237833B9044B13B10448AFF38D
:1001D40000800123237010BD0000002000000000F7
:1001E4008804000808B5034B1BB103490348AFF367
:1001F400008008BD000000000400002088040008FE
:10020400034AD2F8883043F47003C2F88830704748
:1002140000ED00E00D4B1B6883B90D4A12786AB9F2
:100224000B4B01221A700B4A13780133DBB21370A3
:10023400022B0AD9134600221A7070472BB1044BC3
:100244001B7813B1024B00221A7070472000002063
:100254001D0000201C000020294B1B68002B29D006
:1002640028498A69284B1B7803EB43039800274BE2
:100274001B5813438B61264B1B683BB321498A6986
:10028400214B1B7803EB43039800204B03445B682A
:1002940013438B611F4B1B682BB31A498A691A4B92
:1002A4001B7803EB43039800184B03449B681343E8
:1002B4008B61704713498A69134B1B7803EB430323
:1002C4009800154B1B5813438B61D4E70D498A6979
:1002D4000D4B1B7803EB430398000F4B03445B68FF
:1002E40013438B61D6E707498A69074B1B7803EBF5
:1002F40043039800084B03449B6813438B61704786
:100304002C000020000002401C000020C40400084F
:100314002800002024000020A004000808B500F0F4
:1003240027F80D4B1A6902F480620C490A601A69B5
:1003340002F020020A490A601B6903F00103094A1A
:100344001360094B1B6903F40053084A1360FFF759
:1003540061FFFFF781FFE4E7000402402C00002066
:100364002800002024000020000802402000002073
:100374001B4A136B43F0070313631A4B1A6842F0CA
:1003840004021A601A6842F480721A601A6842F011
:1003940001021A605A6822F002025A605A6822F076
:1003A40010025A605A6822F001025A609A6842F0B8
:1003B40004029A609A6842F480729A609A6842F0E1
:1003C40001029A60DA6842F00C02DA60DA6842F4F8
:1003D4004072DA60DA6842F00302DA60704700BF04
:1003E4000038024000000240DFF834D00D480E49C6
:1003F4000E4A002302E0D458C4500433C4188C427B
:10040400F9D30B4A0B4C002301E013600432A242DF
:10041400FBD3FFF7F5FE00F011F8FFF77FFF7047FD
:10042400000002200000002000000020F00400086A
:100434000000002030000020FEE7000070B50D4DE4
:100444000D4C641BA4100026A64209D10B4D0C4C84
:1004540000F018F8641BA4100026A64205D170BD54
:1004640055F8043B98470136EEE755F8043B9847A6
:100474000136F2E7E8040008E8040008E80400088C
:10048400EC040008F8B500BFF8BC08BC9E467047F1
:0C049400F8B500BFF8BC08BC9E467047DD
:1004A0000000010000000200000010000000100029
:1004B0000000010000000200000002000000100027
:1004C0000000010001000000020000001000000018
:1004D0001000000001000000020000000200000007
:0804E000100000000100000003
:0404E800E90100081E
:0404EC00C50100083E
:04000005080003EDFF
:00000001FF
